:100000000C940D010C9435010C9435010C94AC1436
:100010000C9487140C9462140C9435010C943501E3
:100020000C9435010C9435010C9418150C94C215E0
:100030000C94D1140C9435010C9435010C943501B9
:100040000C94C0130C9435010C9430140C940A14C5
:100050000C9435010C9435010C9435010C94350148
:100060000C94A1120C94350108000000BE922449A2
:10007000123EABAAAA2ABECDCCCC4C3E00000080DA
:10008000BEABAAAAAA3E00000000BF000000803F4D
:100090000000000000084178D3BB4387D1133D190D
:1000A0000E3CC3BD4282AD2B3E68EC8276BED98F3A
:1000B000E1A93E4C80EFFFBE01C4FF7F3F0000007E
:1000C000000000407A10F35A00A0724E1809001088
:1000D000A5D4E80000E87648170000E40B540200BD
:1000E00000CA9A3B000000E1F505000080969800E8
:1000F000000040420F000000A08601000000102711
:1001000000000000E80300000000640000000000A0
:100110000A00000000000100000000002C76D888D2
:10012000DC674F0823DFC1DFAE59E1B1B796E5E3E5
:10013000E453C63AE651997696E8E6C28426EB89FE
:100140008C9B62ED407C6FFCEFBC9C9F40F2BAA59B
:100150006FA5F490055A2AF75C936B6CF9676DC133
:100160001BFCE0E40D47FEF520E6B500D0ED902E37
:100170000300943577050080841E080000204E0A95
:10018000000000C80C333333330F986E12831141D3
:10019000EF8D2114893BE65516CFFEE6DB18D1849E
:1001A0004B381BF77C1D901DA4BBE42420328472C5
:1001B0005E228100C9F124ECA1E53D27000000008A
:1001C000240027002A0000000008000201000003AC
:1001D00004070000000000000000000000002500EF
:1001E00028002B0000000000230026002900040442
:1001F00004040404040402020202020203030303CF
:1002000003030102040810204080010204081020AA
:100210000102040810205816E11B11241FBECFEF65
:10022000D8E0DEBFCDBF25E0A2EDB1E001C01D9258
:10023000A433B207E1F711E0A0E0B1E0EAECF8E4A2
:1002400002C005900D92A23DB107D9F711E0CCE0B4
:10025000D1E004C02197FE010E948020CB30D1075D
:10026000C9F70E9469170C9458240C9400008091DF
:10027000000120E4829FC001112480937C008091C2
:100280007A00806480937A0080917A0086FDFCCFAA
:100290008091780090917900089508954F925F922F
:1002A0006F927F928F929F92AF92BF92CF92DF9286
:1002B000EF92FF920F931F93CF93DF934B015C015B
:1002C0008091870390918803A0918903B0918A035C
:1002D00088159905AA05BB0509F4C6C08CE3C82E8C
:1002E000D12CE12CF12CC501A70196010E945E20C2
:1002F00060938003CA01B901A70196010E945E20A4
:1003000060938103C501B40120E13EE040E050E08C
:100310000E945E20CA01B90128E130E040E050E0CF
:100320000E945E2060938203C501B40120E831E59C
:1003300041E050E00E945E2069017A01CA01B901E2
:100340006C5F7F4F8F4F9F4F27E030E040E050E0E1
:100350000E945E206F5F60938303412C512C320119
:1003600040E004E610E0C0E9D1E0242F30E02E5454
:10037000384FF901E370FF273097F9F4C901B8014C
:100380000E944A20892B31F4C901BE010E944A20F3
:10039000892B99F48EE691E0A0E0B0E0480E591E5A
:1003A0006A1E7B1ED301C201AA27BB27C816D90625
:1003B000EA06FB0638F04F5FD8CF8DE691E0A0E06B
:1003C000B0E0ECCF40938603C90164E670E00E9480
:1003D0004A20EC01C90160E971E00E944A2030978F
:1003E00021F42097D9F40097C9F04DE651E060E080
:1003F00070E0441A550A660A770AC418D508E60858
:10040000F708AFE0B1E020E0213069F43097E9F57A
:10041000209711F40097C9F54DE106C04EE651E072
:1004200060E070E0E6CF4C9150E070E060E031E0D9
:10043000320FC416D506E606F70640F0C41AD50AF0
:10044000E60AF70A1196232F3C30F1F62F5F20932E
:100450008503C394C092840380928703909288039B
:10046000A0928903B0928A03DF91CF911F910F91DF
:10047000FF90EF90DF90CF90BF90AF909F908F90C4
:100480007F906F905F904F9008954CE1CDCF209179
:100490003403260F3327331F21323105ECF420912A
:1004A0005A03FC0190E080E0243069F082E0089576
:1004B000A09134032191AC014E5E5C4FA40FB52F87
:1004C000B11D2C930196861798F380913403680F21
:1004D0006093340380E0089581E0089508950895BD
:1004E0000895E091090380910803E81730F4F0E0E3
:1004F000E851FD4F808190E008958FEF9FEF0895C0
:1005000090910903809108032FEF3FEF981748F46B
:10051000E92FF0E0E851FD4F208130E09F5F90939C
:100520000903C90108958091080390910903891B6B
:10053000990B0895CF92DF92EF92FF920F931F9342
:10054000CF93DF937C01CB018A012091E702222324
:1005500089F0EB016B01C40ED51ECC15DD0569F0E9
:100560006991D701ED91FC910190F081E02DC701D7
:100570000995F3CF642F0E944702C801DF91CF9104
:100580001F910F91FF90EF90DF90CF900895CF9340
:10059000DF931F92CDB7DEB769832091E702222354
:1005A000F9F020910A03203258F021E030E0FC01FC
:1005B0003383228390E080E00F90DF91CF91089504
:1005C00080910B03E82FF0E0E953FD4F9981908370
:1005D0008F5F80930B0380930A0381E090E0ECCF60
:1005E00061E0CE0101960E944702F7CF90E0FC0146
:1005F000EA53FE4F2491FC01EE5FFD4F3491FC0164
:10060000E251FE4FE491EE23C9F0222339F023306A
:1006100001F1A8F4213019F1223029F1F0E0EE0FB8
:10062000FF1FE652FE4FA591B4918FB7F894EC915D
:10063000611126C030953E233C938FBF089527302B
:10064000A9F02830C9F0243049F7809180008F7DCF
:1006500003C0809180008F7780938000DFCF84B5C6
:100660008F7784BDDBCF84B58F7DFBCF8091B000C9
:100670008F778093B000D2CF8091B0008F7DF9CF7B
:100680003E2BDACF10925A0381E080935C031092E4
:100690005B0361E082E10E94F60261E083E10E9477
:1006A000F602E9EBF0E080818E7F808380818D7F90
:1006B000808388E48093B80085E48093BC0008952B
:1006C000CF93DF9391E0909311038823B9F0C09109
:1006D000B800D091BA008091BC008A7B8093BC00A6
:1006E00060E082E10E94F60260E083E10E94F6028F
:1006F0000E944203D093BA00C093B800DF91CF911B
:100700000895CF93DF9390E0FC01EE5FFD4F2491BD
:1007100082519E4FFC0184918823C9F090E0880F9C
:10072000991FFC01E454FE4FA591B491FC01E652DF
:10073000FE4FC591D49161110DC09FB7F8948C9173
:10074000209582238C938881282328839FBFDF9163
:10075000CF910895623051F49FB7F8943C91822F65
:10076000809583238C93E8812E2BEFCF8FB7F8945D
:10077000EC912E2B2C938FBFEACFCF93DF93A091D8
:10078000A303B091A403109709F443C01C968C9165
:100790001C97EDE6F0E0883050F0EBE6F0E08E30AC
:1007A00030F0ECE6F0E0863110F0F0E0E0E05FB72A
:1007B000F8941092A4031092A303309749F11C9669
:1007C0008C911C97C8E6D0E0863110F0D0E0C0E0F4
:1007D0002881883008F46AC031E08E3008F430E0B7
:1007E00081E090E001C0880F3A95EAF78095822376
:1007F000888360811C964C91483008F059C081E094
:1008000090E001C0880F4A95EAF78095862380839F
:100810005FBF60E080916B040E94810380916B0454
:1008200090E0FC01EE5FFD4FE491E093A203FC0138
:10083000E251FE4FE491F0E0EE0FFF1FEC51FE4F4E
:100840008591949190936E0480936D0480916C04D3
:1008500090E0FC01EE5FFD4F24912093A103FC0189
:10086000E251FE4FE491F0E0EE0FFF1FE652FE4F23
:10087000A591B491B093A003A0939F03109719F092
:10088000EC91E22BEC9361E080916C040E94810377
:1008900080916B048830E0F08E3008F45EC0ECE6A6
:1008A000F0E08631B8F0DF91CF9108958BEF9FCFC4
:1008B000242F30E04E3048F42850310981E090E098
:1008C00001C0880F2A95EAF7A0CF2E503109F6CF44
:1008D000EDE6F0E08FEF80939E0310929D0310925F
:1008E0009C0380916F049091700481152BE4920712
:1008F00009F457C0A8F58038954209F440C05FB7A5
:10090000F894408190916B04983008F052C081E0D7
:1009100001C0880F9A95EAF7842B808380916B043D
:10092000E8E6F0E0863110F0F0E0E0E09081883019
:1009300008F44EC021E08E3008F420E081E001C0D0
:10094000880F2A95EAF7892B80838FE594E09093AE
:10095000A4038093A3035FBFA6CFEBE6F0E0BACF7A
:1009600082312AE79207A9F08115964941F686E07F
:1009700080939B038DE980939A0384E007C08AE10A
:1009800080939B0387E280939A038AE08093990384
:10099000B6CF88E080939B0380E880939A0385E03C
:1009A000F5CF8DE080939B038EE480939A0386E0DD
:1009B000EDCF292F30E09E3040F42850310981E0FE
:1009C00001C0880F2A95EAF7A7CF2E503109F7CF3B
:1009D00084E0B9CF3FB7F8948091C3029091C402EC
:1009E000A091C502B091C60226B5A89B05C02F3FB5
:1009F00019F00196A11DB11D3FBFBA2FA92F982F45
:100A00008827BC01CD01620F711D811D911D42E03F
:100A1000660F771F881F991F4A95D1F708958F9207
:100A20009F92AF92BF92CF92DF92EF92FF924B01D3
:100A30005C010E94EA046B017C010E94EA046C19CB
:100A40007D098E099F09683E734081059105A8F3D1
:100A500021E0821A9108A108B10888EEC80E83E04F
:100A6000D81EE11CF11C81149104A104B10429F7E2
:100A7000FF90EF90DF90CF90BF90AF909F908F90BE
:100A800008952FB7F8946091BF027091C0028091D1
:100A9000C1029091C2022FBF089560939503709395
:100AA00096038093970390939803645D7E4F8F4FD6
:100AB0009F4F60939103709392038093930390935D
:100AC000940382E090E09093900380938F030E94C0
:100AD000410560938B0370938C0380938D039093F7
:100AE0008E030895AF92BF92CF92DF92EF92FF9262
:100AF0000F931F93CF93DF936C017B018B01040F46
:100B0000151FEB015E01AE18BF08C017D10759F0E1
:100B10006991D601ED91FC910190F081E02DC60123
:100B20000995892B79F7C501DF91CF911F910F911D
:100B3000FF90EF90DF90CF90BF90AF900895FC01B1
:100B400044815581608171818EE494E00C9472053A
:100B5000FC01538D448D252F30E0842F90E0821BC3
:100B6000930B541710F0CF96089501970895FC0148
:100B7000918D828D981761F0A28DAE0FBF2FB11DA0
:100B80005D968C91928D9F5F9F73928F90E00895F8
:100B90008FEF9FEF0895FC01918D828D981731F0B2
:100BA000828DE80FF11D858D90E008958FEF9FEF06
:100BB0000895FC01918D228D892F90E0805C9F4FDC
:100BC000821B91098F739927089581EB93E00E940E
:100BD000D90521E0892B09F420E0822F089580E0D7
:100BE00090E0892B29F00E94E50581110C9400000A
:100BF0000895FC01A48DA80FB92FB11DA35ABF4FB2
:100C00002C91848D90E001968F739927848FA6890B
:100C1000B7892C93A089B1898C91837080648C935F
:100C2000938D848D981306C00288F389E02D80810E
:100C30008F7D80830895EF92FF920F931F93CF9340
:100C4000DF93EC0181E0888F9B8D8C8D98131AC007
:100C5000E889F989808185FF15C09FB7F894EE89EE
:100C6000FF896083E889F98980818370806480834B
:100C70009FBF81E090E0DF91CF911F910F91FF9096
:100C8000EF900895F62E0B8D10E00F5F1F4F0F733E
:100C90001127E02E8C8D8E110CC00FB607FCFACFF9
:100CA000E889F989808185FFF5CFCE010E94F90599
:100CB000F1CFEB8DEC0FFD2FF11DE35AFF4FF082CA
:100CC0009FB7F8940B8FEA89FB8980818062CFCF30
:100CD000CF93DF93EC01888D8823B9F0AA89BB8973
:100CE000E889F9898C9185FD03C0808186FD0DC05E
:100CF0000FB607FCF7CF8C9185FFF2CF808185FF7F
:100D0000EDCFCE010E94F905E9CFDF91CF91089593
:100D1000E091A303F091A4033097C1F00288F38916
:100D2000E02D309709F0099420919C0330E0A9014F
:100D30004F5F5F4F4F73552790919D03941731F08C
:100D40002C583D4FF901808340939C030895CF9325
:100D5000DF93EC0130919E033F3F91F1AE85BF855B
:100D60008C919091A203892359F126B599E0931BA8
:100D700080919903280F80917302281B80919A0318
:100D8000289F90011124232F33272695269592170B
:100D90001306B0F48091720220917102915018F004
:100DA000822B220FFBCF80937202209371029093CB
:100DB0009E030E94880681E02A893B89232B09F043
:100DC00080E0DF91CF910895EF92FF920F931F93F0
:100DD000CF93DF93E6B4F090A203F82290919E03A4
:100DE0009F3F91F4F11009C010929E0381E080931F
:100DF000710210927202E0927302DF91CF911F9103
:100E00000F91FF90EF900895C0919903CE0D8091BE
:100E10007302C81B80919A03C89FE0011124CD2F53
:100E2000DD27C695C69529E0291B022F10E00C1777
:100E30001D0708F02C2F920F90939E034091710292
:100E400080917202F11011C02150342F330F2F3FC7
:100E500019F0842B432FF8CF8093720230937102E4
:100E6000983048F20E94880613C02150330B01C00D
:100E7000440F2A95EAF740937102842B8093720203
:100E8000983008F4B8CF0E94880681E0F81621F067
:100E90000C171D0708F4A8CF8FEF80939E03ABCFEC
:100EA000CF92DF92EF92FF920F931F93CF93DF9336
:100EB0008C01D62E80919F039091A003892B09F479
:100EC00054C0D8011C969C91D4E0983048F081E041
:100ED0009E3008F480E0D1E001C0DD0F8A95EAF78A
:100EE000CFB6F894F6B490E0E12CE394E0919F0340
:100EF000F091A0038091A103BAE0EB1651F1992380
:100F0000D9F09081892B8083C0919B03C63011F466
:100F1000E0FCC7E086B58F198C17B0F48BB38D2336
:100F200079F08BB38D2B8BBBD8011E96ED91FC9184
:100F300080810E94E406EECF908180958923E3CFE3
:100F4000C8010E94A706E6CFFC0E9D2D9170D69495
:100F5000CCCF9081892B8083CFBE86B58F198C171B
:100F600078F4C8010E94A706F8CF90E080E0DF91F6
:100F7000CF911F910F91FF90EF90DF90CF90089548
:100F800081E090E0F4CF20919D0380919C03821733
:100F900069F030E0F901EC58FD4F80812F5F3F4F41
:100FA0002F73332720939D0390E008958FEF9FEFD9
:100FB00008959C0180919C0390919D03891B990B3E
:100FC000805C9F4F60E470E00E944A20811105C060
:100FD000C901F8940E94A706789490E00895509172
:100FE000B8024091B702852F90E0242F30E05417CB
:100FF00018F0821B930B0895805B9F4FFACF80916E
:10100000B802E091B7028E1751F0EF5FE03508F0BB
:10101000E0E0F0E0EF5DFD4F808190E008958FEF1C
:101020009FEF08958091B8029091B702891769F0F7
:101030009F5F903508F090E0E92FF0E0EF5DFD4F05
:1010400080819093B70290E008958FEF9FEF08950D
:10105000CF93DF93EC018A859B85AC85BD858E831C
:101060009F83A887B9870E9441056A837B838C830D
:101070009D8381E089838883DF91CF910895CF9309
:10108000DF93EC018E819F81A885B9858A839B833C
:10109000AC83BD830E9441056A877B878C879D87CF
:1010A00081E089838883DF91CF910895CF92DF9289
:1010B000EF92FF920F931F93CF93DF93FC01C481B4
:1010C00021E02093E702C093D60110920B03109207
:1010D0000A038485682B85EA93E00E94C702D091B9
:1010E0000A03D13208F092C00E94EA046B017C012D
:1010F00080915A03811165C082E080935A0381E098
:1011000080935C038FEF8093590310927E03D093FA
:101110007D03A7ECB2E0EDE5F3E080E0D81385C0F5
:1011200010927F0380917F03CC0FC82BC0937F0365
:1011300080915B03813009F07CC010925B030E94B8
:10114000EA046B017C0180917F038093BB00809156
:101150000D0390910E03A0910F03B0911003892B02
:101160008A2B8B2B99F00E94EA0400910D031091B9
:101170000E0320910F03309110036C197D098E0925
:101180009F090617170728073907E0F18091BC006F
:1011900083FDD9CF85EC8093BC000E94EA046B01EB
:1011A0007C0180915A03823009F445C08091590333
:1011B0008F3F61F180915903803241F18091590351
:1011C00025C080910D0390910E03A0910F03B09163
:1011D0001003892B8A2B8B2B09F48ACF0E94EA04F7
:1011E00000910D0310910E0320910F033091100315
:1011F0006C197D098E099F090617170728073907FB
:1012000008F076CF80910C030E94600310920B03CC
:1012100010920A031092E702DF91CF911F910F9174
:10122000FF90EF90DF90CF9008959D9191938F5F05
:1012300075CF85EEB0CF80910D0390910E03A091F4
:101240000F03B0911003892B8A2B8B2B09F4A9CFA4
:101250000E94EA0400910D0310910E0320910F03E8
:10126000309110036C197D098E099F090617170725
:101270002807390708F095CFC5CF8091B6028111B4
:10128000FCCF08958091B5028F5F843408F080E030
:101290009091B4029817E1F32FB7F8949091B602A9
:1012A000992359F0E82FF0E0E952FE4F60838093D4
:1012B000B5022FBF81E090E0089581E08093B602EF
:1012C00060931C0210921B0282E086BB80916F002B
:1012D000826080936F00809180008F7B8068809314
:1012E00080008091840090918500409690938900C1
:1012F00080938800DECF90E080E008950F931F93E5
:10130000CF938C01C62F0E9456086C2F6460C801D1
:101310000E9456086C2F6B7FC8010E94560883EC10
:1013200090E00197F1F7CF911F910F9108950F93DE
:101330001F93CF93DF938C01D62FC42F607F642B34
:101340000E947E0980E1D89FB00111246C2BC80156
:10135000DF91CF911F910F910C947E09CF93DF9372
:10136000CDB7DEB728970FB6F894DEBF0FBECDBF5E
:1013700098E0E7E0F1E0DE01119601900D929A9578
:10138000E1F790915604961710F46FEF690F262F2E
:1013900030E0220F331F41E050E04C0F5D1F240F5F
:1013A000351FF9016081680F606840E08EE494E0C9
:1013B00028960FB6F894DEBF0FBECDBFDF91CF9158
:1013C0000C94970940E061E08EE494E00E94970954
:1013D0008BE39FE10197F1F780915704882321F077
:1013E00060E080E00C94AE09089541E00E94970906
:1013F00081E090E00895FB0101900020E9F731972A
:10140000AF01461B570BDC01ED91FC910280F3818B
:10141000E02D09948F929F92AF92BF92EF92FF922C
:101420000F931F93CF93DF93CDB7DEB7A1970FB67E
:10143000F894DEBF0FBECDBF7C01FA01CB0119A22B
:10144000223008F42AE08E010F5D1F4F822E912C6E
:10145000B12CA12CBF01A50194010E945E20F901CD
:10146000CA016A300CF5605DD8016E938D01232BA3
:10147000242B252B79F790E080E0109721F0BD0117
:10148000C7010E94FB09A1960FB6F894DEBF0FBEFC
:10149000CDBFDF91CF911F910F91FF90EF90BF9043
:1014A000AF909F908F900895695CDECFCF92DF92CE
:1014B000EF92FF92CF93DF936C01990FEE08FF0834
:1014C000F7FE1BC06DE28FE594E00E945007EC012F
:1014D00044275527BA014C195D096E097F092AE096
:1014E0008FE594E00E940A0A8C0F9D1FDF91CF9137
:1014F000FF90EF90DF90CF9008952AE0B701A6010A
:101500008FE594E0DF91CF91FF90EF90DF90CF9047
:101510000C940A0A2F923F924F925F926F927F92A1
:101520008F929F92AF92BF92CF92DF92EF92FF92F3
:101530001F93CF93DF93EC016A017B01722EAB0105
:101540009601CB01B6010E9414226FE671E0811171
:1015500026C046015701E894B7F82FEF3FEF4FE759
:101560005FE7C501B4010E94142281110CC02FEF66
:101570003FEF4FE75FE7C501B4010E94C51E63E777
:1015800071E0181664F02FEF3FEF4FE75FE4C701FB
:10159000B6010E94B7211816B4F467E771E0CE01D6
:1015A000DF91CF911F91FF90EF90DF90CF90BF9090
:1015B000AF909F908F907F906F905F904F903F90F3
:1015C0002F900C94FB092FEF3FEF4FE75FECC70123
:1015D000B6010E94C51E87FDE0CF20E030E0A901E2
:1015E000C701B6010E94C51E312C212C87FF0DC0FA
:1015F000E881F9810190F081E02D6DE2CE0109953D
:101600001C01F7FAF094F7F8F09410E060E070E055
:1016100080E09FE3711641F020E030E040E251E4C9
:101620000E940F211F5FF6CFA70196010E94A32001
:101630002B013C010E9488214B015C012AE0BC0186
:10164000A401CE010E940A0A7C01E20CF31C1123C2
:10165000E1F1C501B4010E94CA1E9B01AC01C301A6
:10166000B2010E94A2204B015C01E881F981019046
:10167000F081E02D6EE2CE010995E80EF91E1150C1
:1016800020F120E030E040E251E4C501B4010E94C5
:101690002B1F2B013C010E9488214B01B12CA12C56
:1016A0002AE0B501A401CE010E940A0AE80EF91E43
:1016B000C501B4010E94CA1E9B01AC01C301B20165
:1016C0000E94A2204B015C01DACFC701DF91CF91CC
:1016D0001F91FF90EF90DF90CF90BF90AF909F90C1
:1016E0008F907F906F905F904F903F902F900895D4
:1016F0000C94FB0985ED8093BC0080910D039091C3
:101700000E03A0910F03B09110030796A11DB11D08
:1017100023E0B695A795979587952A95D1F72091BF
:10172000BC0024FD03C010925A03089540910D039C
:1017300050910E0360910F0370911003452B462BBF
:10174000472B69F30097A105B10541F025E32A95E0
:10175000F1F700000197A109B109E1CF80910C03D5
:101760000C9460032F923F924F925F926F927F9200
:101770008F929F92AF92BF92CF92DF92EF92FF92A1
:101780000F931F93CF93DF93D82FC92F8B010E9404
:101790001D1C24E630E040E050E00E945E2049013C
:1017A0009B01AC0160E876E988E990E00E943A206C
:1017B0006B017C01F80191828082ED2FFC2F219139
:1017C000822F022E000C990BC0970A97C0F32E327D
:1017D00039F51F0180E8882E86E9982E88E9A82E21
:1017E000B12C9AE0492E512C612C712CF101C19140
:1017F0001F010C2E000CDD0BE097CA30D10580F4E0
:10180000C501B401A30192010E945E2049015A0161
:10181000DE010E948620C60ED71EE81EF91EE6CF06
:10182000A5E0B0E0A70196010E94E91F6F5F7F4F1E
:101830008F4F9F4F23E030E040E050E00E945E2059
:10184000F80122833383448355831682DF91CF913D
:101850001F910F91FF90EF90DF90CF90BF90AF90CE
:101860009F908F907F906F905F904F903F902F90C0
:1018700008951F93CF93DF93EC0118811D3209F473
:101880002196CE010E941D1C9B01AC01A4E6B0E094
:101890000E94E91FAB01BC01FE012991822F022E9B
:1018A000000C990BC0970A97B8F32E3231F581815D
:1018B000082E000C990BC0978A309105F0F4AAE02D
:1018C000A89F9001A99F300D1124C901330FAA0BC5
:1018D000BB0B480F591F6A1F7B1F8281082E000C0B
:1018E000990BC0978A30910540F4092E000CAA0B81
:1018F000BB0B480F591F6A1F7B1F1D3239F47095AF
:101900006095509541955F4F6F4F7F4FCB01BA0166
:10191000DF91CF911F9108950F931F93CF93DF9382
:10192000EC0188819981009759F02A813B81261723
:10193000370730F081E0DF91CF911F910F9108952B
:101940008B016F5F7F4F0E947323009759F099833B
:1019500088831B830A832C813D81232B59F7FC014B
:101960001082E8CF80E0E7CFEF92FF920F931F93B2
:10197000CF93DF936115710541F480E0DF91CF9142
:101980001F910F91FF90EF90089541155105B1F00F
:101990007B01EC010C811D81040F151FB8010E9411
:1019A0008C0C882351F3288139818C819D81B7016A
:1019B000820F931F0E9442241D830C8381E0DECF9F
:1019C000CF93DF93EC0188819981009711F00E94F9
:1019D000EA22198218821D821C821B821A82DF91E0
:1019E000CF910895CF93DF93EC0141E050E067EB96
:1019F00071E00E94B40C811103C0CE010E94E00C82
:101A0000CE01DF91CF910895CF93DF93EC01FB01DD
:101A100044815581608171810E94B40C811103C0A1
:101A2000CE010E94E00CCE01DF91CF910895EF929C
:101A3000FF920F931F93CF93DF93EC017B018A01F9
:101A4000BA010E948C0C81110BC0CE010E94E00CE7
:101A5000CE01DF91CF911F910F91FF90EF900895EC
:101A60001D830C83B701888199810E944224F0CFA5
:101A7000EF92FF920F931F93CF93DF93CDB7DEB713
:101A8000A1970FB6F894DEBF0FBECDBF7C01CB018E
:101A9000BA01F70111821082138212821582148218
:101AA0008E010F5F1F4F22E044E00E94FF1B009752
:101AB000C9F0FC0101900020E9F73197AF01481B04
:101AC000590BBC01C7010E94170DA1960FB6F894DF
:101AD000DEBF0FBECDBFDF91CF911F910F91FF9061
:101AE000EF900895C7010E94E00CEFCFEF92FF92B4
:101AF0000F931F93CF93DF93CDB7DEB762970FB6E7
:101B0000F894DEBF0FBECDBF8C01CB01F80111826E
:101B1000108213821282158214824AE09E012F5F86
:101B20003F4F7901B9010E94441CF7010190002048
:101B3000E9F73197AF014E195F09B701C8010E945B
:101B4000170D62960FB6F894DEBF0FBECDBFDF91C2
:101B5000CF911F910F91FF90EF900895CF93DF9356
:101B6000EC01FB018617970749F0608171816115CF
:101B7000710541F0448155810E94170DCE01DF911E
:101B8000CF9108950E94E00CF9CFFC0111821082E0
:101B90001382128215821482FB0101900020E9F762
:101BA0003197AF01461B570B0C94170DFC01808138
:101BB0009181009711F00C94EA220895EF92FF9220
:101BC0000F931F93CF93DF9300D000D000D0CDB7F9
:101BD000DEB78C01F62E0E944105AB01BC0180915D
:101BE0005B0490915C04A0915D04B0915E04FF20C1
:101BF00089F184179507A607B70740F440935B0463
:101C000050935C0460935D0470935E041A821982A1
:101C10001C821B821E821D82B801CE0101960E9489
:101C2000AE0D61E080E00E94AE09CE0101960E94F7
:101C30009F05CE0101960E94D60D26960FB6F89408
:101C4000DEBF0FBECDBFDF91CF911F910F91FF90EF
:101C5000EF9008958C509E4FAF4FBF4F48175907D4
:101C60006A077B0750F3F801E480F58061E080E0CB
:101C70000E94AE0910E000E00E151F05F4F66BE7B8
:101C800071E08EE494E00E94780B0F5F1F4FF4CF59
:101C9000AF92BF92CF92DF92EF92FF920F931F937A
:101CA000CF93DF93CDB7DEB72C970FB6F894DEBF96
:101CB0000FBECDBF8C017B016A0160EA71E0CE01ED
:101CC00007960E94C50DE114F10471F1B7010F2CC4
:101CD000000C880B990B0E94CC1E0E94BC2120E0B6
:101CE00030E040E85FE30E94A3200E9481216C1550
:101CF0007D05E4F0B701C8010E94760DCE0107967C
:101D00000E94D60DC8012C960FB6F894DEBF0FBE08
:101D1000CDBFDF91CF911F910F91FF90EF90DF909A
:101D2000CF90BF90AF90089561E070E0B12CA12CEE
:101D3000C61AD70AAC14BD0464F441E050E06DE764
:101D400071E0CE0107960E94B40C8FEFA81AB80A72
:101D5000F1CFB701CE0101960E94760D4D815E81D3
:101D600069817A81CE0107960E94B40CCE0101965A
:101D70000E94D60D8F819885F80191838083898593
:101D80009A85938382838B859C859583848318862B
:101D90001F821A8619861C861B86B0CF2F923F920F
:101DA0004F925F926F927F928F929F92AF92BF926B
:101DB000CF92DF92EF92FF920F931F93CF93DF9317
:101DC000CDB7DEB7EF970FB6F894DEBF0FBECDBF2D
:101DD000182F0E9437019CAF8BAF112309F496C3D3
:101DE0008091EB04882381F01092EC0481E0409113
:101DF000F1045091F2046091F3047091F404452BC6
:101E0000462B472B09F480E011E018276FE771E0BB
:101E1000CE0101960E94C50D612FCE0101960E9450
:101E2000DE0DCE0101960E94D60D1123D9F081E07E
:101E300090E0EF960FB6F894DEBF0FBECDBFDF91F6
:101E4000CF911F910F91FF90EF90DF90CF90BF90B7
:101E5000AF909F908F907F906F905F904F903F904A
:101E60002F9008951092B404C090B504D090B60499
:101E7000E090B704F090B80480917F0490918004C2
:101E8000A0918104B09182048C159D05AE05BF051B
:101E900070F6C0927F04D0928004E0928104F092A8
:101EA00082048091B304882309F455C18091A5046C
:101EB000882309F450C11092A6048091A704909140
:101EC000A804A091A904B091AA0489AB9AABABABCA
:101ED000BCAB24E6822E912CA12CB12CBC01CD01EF
:101EE000A50194010E945E206DAB7EAB8FAB98AFD5
:101EF0002DA83EA890E3291A98EF390ACA01B90122
:101F0000A50194010E945E20062F69AF7AAF30E1EF
:101F1000432E37E2532E612C712C69A97AA98BA923
:101F20009CA9A30192010E945E20122FA22FB0E073
:101F3000BEAFADAFC701B601A50194010E945E20FE
:101F4000CA01B901A50194010E945E2069AB7AAB78
:101F50008BAB9CABC701B601A30192010E945E202E
:101F6000CA01B901A50194010E945E20662E572E78
:101F7000482E9FAFC701B60120E432E44FE050E0A5
:101F80000E945E20722EEDA9FEA97E96E093860344
:101F9000009385031093840320938203609281034E
:101FA000B9A9B0938003DF0120E833E341EE51E0AB
:101FB0000E9486204B015C0122EB37E044E6E42ED0
:101FC000F12C00E911E0C901825B97408E179F0751
:101FD00084F1C10164E670E00E944A206C01C101F5
:101FE00060E971E00E944A207C010FE011E0E1E02D
:101FF000F0E023E022223324A9ADBAADEA17FB07B3
:102000000CF041C0E230F10579F52114310461F59D
:10201000C114D10419F4E114F10431F5B0E88B0EC8
:10202000BBE39B1EB6E2AB1EB11C31960F5F1F4F88
:10203000E3CFC90183709927892B99F4C901B701AE
:102040000E944A20892B31F4C901B8010E944A201C
:10205000892B39F480E8880E81E5981E81E0A81E5E
:10206000B11C2F5F3F4FAFCFD8018C91A82FB0E0AC
:1020700020E831E541E050E00E94E91F860E971EFE
:10208000A81EB91ED2CF272D30E0A0E1BEE00E94ED
:102090002B206B017C01ACE3B0E0262D352D442DC7
:1020A0005FAD0E94E91FC60ED71EE81EF91E89A962
:1020B0009AA9ABA9BCA9C80ED91EEA1EFB1EADADDC
:1020C000BEAD119720E831E541E050E00E94862046
:1020D0006C0D7D1D8E1D9F1D680D791D8A1D9B1D1C
:1020E0000E944D050E94410500918B0310918C03C5
:1020F00020918D0330918E03C0909503D09096036C
:10210000E0909703F0909803AB01BC01401B510B8A
:10211000620B730B483E534061057105F8F0AFEF59
:10212000CA1ADA0AEA0AFA0AC0929503D09296030A
:10213000E0929703F0929803D901C80188519C4F0F
:10214000AF4FBF4F80938B0390938C03A0938D036D
:10215000B0938E03C7CFC12CD12C76018091C104DE
:1021600010E000E0882361F11092C2046091C7047E
:102170007091C8048091C9049091CA040E94CC1E39
:102180002EEB3CE443E95FE30E942B1F20E030E0AC
:1021900048EC52E40E940F214B015C0120E030E04A
:1021A000A9010E94B72120E030E040E05FE387FD15
:1021B000A8C1C501B4010E94A3200E9481218B0106
:1021C000EBADFCADBF01FF0F880B990B0E94CC1E3D
:1021D00029E030EF4CE85AE30E942B1F20E030E06A
:1021E00048EA51E40E942B1F4B015C01C701B60174
:1021F0000E944E016091820370E042E050E0CE0107
:1022000001960E94480EC701B6010E944E016091DE
:10221000810370E042E050E0CE0107960E94480E34
:10222000C701B6010E944E016091800370E042E058
:1022300050E0CE010D960E94480E60E080E00E94C2
:10224000AE091C8A1B8A1E8A1D8A188E1F8ABE012F
:102250006F5F7F4FCE0143960E94AE0DCE01439635
:102260000E94F20CBE01695F7F4F0E94040D0E9424
:10227000F20CBE01635F7F4F0E94040D0E949F0518
:10228000CE0143960E94D60D60E08CE00E94AE091C
:1022900042E050E0B801CE0143960E94480ECE01C4
:1022A00043960E949F05CE0143960E94D60D62E0A0
:1022B00084E00E94AE0943E050E070E060E0CE01AF
:1022C00043960E94480ECE0143960E949F05CE0180
:1022D00043960E94D60D6FE871E08EE494E00E9470
:1022E000780B62E08EE00E94AE0922E0B501A40105
:1022F0008EE494E00E948A0A6FE871E08EE494E034
:102300000E94780B63E084E00E94AE0921E040E087
:1023100050E0BA018EE494E00E948A0A6FEC71E00A
:102320008EE494E00E94780B63E08EE00E94AE0998
:1023300021E040E050E0BA018EE494E00E948A0A75
:102340006FEC71E08EE494E00E94780BCE010D9664
:102350000E94D60DCE0107960E94D60DCE010196A1
:102360000E94D60D0E944105AB01BC018091D201B3
:102370009091D301A091D401B091D5018856954C8C
:10238000AF4FBF4F84179507A607B70708F0B6C031
:1023900040E050E0BA01CE018B960E94380D40E03B
:1023A00050E0BA01CE0185960E94380DB501A40116
:1023B000CE014F960E94380D70E060E0CE01499644
:1023C0000E94760DB801CE0101960E94760D1C8AFE
:1023D0001B8A1E8A1D8A188E1F8ABE016F5F7F4F5F
:1023E000CE0143960E94AE0DBE01675E7F4FCE01C7
:1023F00043960E94040DBE01615E7F4F0E94040D52
:10240000BE016B5D7F4F0E94040DBE01655D7F4F75
:102410000E94040DDC011496ED90FC90B4E0EB0EEC
:10242000F11CCE0143960E94D60DCE0101960E946A
:10243000D60DCE0149960E94D60DCE014F960E9430
:10244000D60DCE0185960E94D60DCE018B960E94A8
:10245000D60D61E971E08FE594E00E94780BC70129
:102460000E94560A6AE971E08FE594E00E94780BB9
:10247000C8010E94560A6CE971E08FE594E00E9461
:10248000780B90E080E00E94560A6CE971E08FE5DD
:1024900094E00E94780B21E0B501A4018FE594E05F
:1024A0000E948A0A6CE971E08FE594E00E94780B43
:1024B00021E040E050E0BA018FE594E00E948A0AF2
:1024C0006CE971E08FE594E00E94780B21E040E038
:1024D00050E0BA018FE594E00E948A0A6EE971E04B
:1024E0008FE594E00E94780B0E9441056093D20131
:1024F0007093D3018093D4019093D50190E080E054
:1025000098CCC501B4010E94A22057CE67E871E0C3
:10251000CE0101960E94C50D61E0CE0101960E9498
:10252000DE0DCE0101960E94D60D68EE73E080E0CC
:1025300090E00E940F0510E000E0C12CD12C760144
:102540003FCE1F920F920FB60F9211242F933F93FD
:102550004F935F936F937F938F939F93AF93BF93AB
:10256000EF93FF938091B900887F803609F44AC0C9
:10257000F0F5883209F4A7C018F5803109F49BC042
:10258000B8F4882309F4F9C0883009F494C0FF91A5
:10259000EF91BF91AF919F918F917F916F915F91DB
:1025A0004F913F912F910F900FBE0F901F90189554
:1025B000883109F488C0803251F78093590314C0E0
:1025C000803409F49DC040F48033B9F38833F9F6C0
:1025D0008093590385ECB0C0803509F485C08835F7
:1025E00009F496C0883499F60E947A0BD0CF8839C6
:1025F00009F48CC038F5883729F050F4883611F08A
:10260000803729F683E080935A031092580357C00D
:10261000883809F47BC0803919F0803809F0B7CFC9
:1026200080915803803208F071C0E091580381E036
:102630008E0F809358038091BB00F0E0E85CFC4F64
:1026400080833DC0803B39F0E0F4803A09F479C0E2
:10265000883A09F09CCF84E080935A0310923503A6
:1026600010923403E0913203F09133030995809185
:10267000340381110FC081E0809334031092120360
:1026800009C0803C09F4A6CF883C09F4A3CF883B5D
:1026900009F07DCFE091350381E08E0F8093350303
:1026A000F0E0EE5EFC4F80818093BB00909135039B
:1026B0008091340329C080917F038093BB0085EC17
:1026C0008093BC0064CF90917E0380917D03981726
:1026D00058F5E0917E0381E08E0F80937E03F0E059
:1026E000E35AFC4F8081E9CFE0917E0381E08E0FB9
:1026F00080937E038091BB00F0E0E35AFC4F80831F
:1027000090917E0380917D039817C8F285E8D8CF19
:10271000E0917E0381E08E0F80937E038091BB0069
:10272000F0E0E35AFC4F808380915C0381115CCF21
:1027300081E080935B0384EA8093BC0010925A038B
:1027400026CF85EC8093BC0010925A0380915803E9
:10275000803230F4E0915803F0E0E85CFC4F1082E6
:102760006091580370E0E0913603F091370388E3FD
:1027700093E00995109258030ACF1092590334CF71
:102780001F920F920FB60F9211242F933F938F93A6
:102790009F93AF93BF938091BF029091C002A0918D
:1027A000C102B091C2023091BE0223E0230F2D3747
:1027B00058F50196A11DB11D2093BE028093BF0262
:1027C0009093C002A093C102B093C2028091C30251
:1027D0009091C402A091C502B091C6020196A11DBC
:1027E000B11D8093C3029093C402A093C502B0931D
:1027F000C602BF91AF919F918F913F912F910F9002
:102800000FBE0F901F90189526E8230F0296A11D6A
:10281000B11DD2CF1F920F920FB60F9211242F939A
:102820003F934F935F936F937F938F939F93AF9358
:10283000BF93EF93FF9381EB93E00E94F905FF9123
:10284000EF91BF91AF919F918F917F916F915F9128
:102850004F913F912F910F900FBE0F901F901895A1
:102860001F920F920FB60F9211242F938F939F9365
:10287000EF93FF93E091C103F091C2038081E09157
:10288000C703F091C80382FD1BC090818091CA03E9
:102890008F5F8F732091CB03821741F0E091CA03C1
:1028A000F0E0EF54FC4F958F8093CA03FF91EF91B6
:1028B0009F918F912F910F900FBE0F901F901895A1
:1028C0008081F4CF1F920F920FB60F9211242F9395
:1028D0003F934F935F936F937F938F939F93AF93A8
:1028E000BF93EF93FF9389B10E94E406FF91EF91AC
:1028F000BF91AF919F918F917F916F915F914F9118
:102900003F912F910F900FBE0F901F9018951F921F
:102910000F920FB60F9211242F933F934F935F9313
:102920006F937F938F939F93AF93BF93EF93FF9397
:1029300086B10E94E406FF91EF91BF91AF919F9104
:102940008F917F916F915F914F913F912F910F9058
:102950000FBE0F901F9018951F920F920FB60F92F7
:1029600011242F933F934F935F936F937F938F9394
:102970009F93AF93BF93EF93FF9383B10E94E406BD
:10298000FF91EF91BF91AF919F918F917F916F9147
:102990005F914F913F912F910F900FBE0F901F901D
:1029A00018951F920F920FB60F9211242F938F93A9
:1029B0009F93EF93FF9380916F008B7F80936F00C5
:1029C000809181008F7B809381008091B90220915A
:1029D0002002205890911F02893020F49695922B66
:1029E0008F5FFACF90931F028091B8028F5F80357E
:1029F00008F080E02091B702281739F0E82FF0E0C6
:102A0000EF5DFD4F90838093B8021092B9028091E0
:102A100081008F7B8093810010922002FF91EF91C3
:102A20009F918F912F910F900FBE0F901F9018952F
:102A30001F920F920FB60F9211242F933F934F9333
:102A40005F936F937F938F939F93AF93BF93EF9316
:102A5000FF93809186009091870040912002209101
:102A600081004423F1F12F7B2093810010922002FA
:102A70003091B90231113CC0411122C02091BA02FB
:102A80003091BB02280F391F30938B0020938A00AE
:102A900024E026BB20916F00246020936F002091DA
:102AA000BC023091BD02820F931F36952795280FE7
:102AB000391F30931E0220931D0281E08093B902DA
:102AC000FF91EF91BF91AF919F918F917F916F9106
:102AD0005F914F913F912F910F900FBE0F901F90DC
:102AE000189520642093810020E820932002C0CF15
:102AF00040911D0250911E026091BC027091BD0276
:102B0000DB01A095B095E091200220911F02841B6B
:102B1000950BA817B90768F126952E2B460F571F5E
:102B20003F5F861B970B3930A0F320931F028091E3
:102B30006F008B7F80936F008091B8028F5F80352C
:102B400008F080E09091B702981749F0E82FF0E084
:102B500090911F02EF5DFD4F90838093B8028091AA
:102B600081008F7B80938100109220021092B90225
:102B7000A7CF20931F0250931E0240931D02309353
:102B8000B9029ECF1F920F920FB60F9211242F936E
:102B90003F934F935F936F937F938F939F93EF93A5
:102BA000FF932091B60260911C0280918800909161
:102BB00089004091BC025091BD0230911B022A3025
:102BC00070F5840F951F762F7170293009F471E02C
:102BD00066952F5F371799F3309180007723E1F0E6
:102BE000306C3093800090938900809388007093BC
:102BF0001B0260931C022093B602FF91EF919F91FC
:102C00008F917F916F915F914F913F912F910F9095
:102C10000FBE0F901F9018953F7B3068E2CF309128
:102C2000B502E091B4023E1319C02A3051F42BE0F2
:102C30002093B602840F951F90938900809388009B
:102C4000DCCF1092B602809180008F738093800059
:102C500080916F008D7F80936F00CFCFEF5FE43462
:102C600008F0E0E0E093B402F0E0E952FE4F30817A
:102C700030931C0210921B02309180003F7B306821
:102C8000309380002A3071F42091BC023091BD0253
:102C9000820F931F909389008093880081E0809336
:102CA000B602ABCF80918400909185004096F2CF20
:102CB000E5EAF3E01382128288EE93E0A0E0B0E050
:102CC00084839583A683B7832FE131E0318320830A
:102CD000E1EBF3E01382128284839583A683B783AA
:102CE00021E331E03183208325EC30E035872487F0
:102CF00024EC30E03787268720EC30E0318B208BC6
:102D000021EC30E0338B228B22EC30E0358B248BAE
:102D100026EC30E0378B268B118E128E138E148E9C
:102D2000E3E7F4E01382128284839583A683B7835A
:102D30002FE431E0318320831486158616861786AA
:102D4000108A118A138A128A148A158A168A178A97
:102D5000108E128E118E138E148E158E168E178E67
:102D600011A210A212A213A214A215A216A210A6BA
:102D700017A211A612A613A614A615A612AA13AA84
:102D800014AA15AA16AA17AA1092B3041092B40492
:102D90001092B5041092B6041092B7041092B804C1
:102DA0001092C1041092C2041092C7041092C80479
:102DB0001092C9041092CA041092CF041092D00449
:102DC0001092D5041092D6041092D7041092D80411
:102DD0001092DD041092DE041092E3041092E404D9
:102DE0001092E5041092E6041092EB041092EC04A9
:102DF0001092F1041092F2041092F3041092F40471
:102E00001092F9041092FA041092FF041092000537
:102E10001092010510920205109207051092080504
:102E200022E0209318051092190510921A051092AD
:102E30001B0510921D0510921C0510921F05109283
:102E40001E05109220051092210510922205109265
:102E50002305109224051092250510922605109244
:102E60002705109228051092290510922A05109224
:102E70002B0510922C0510922D0510922E05109204
:102E80002F0510920905EFE5F4E013821282848386
:102E90009583A683B783248783E08587138A128A64
:102EA00081E691E091838083EEE4F4E01382128264
:102EB000118687E2848384E1828784E08387148695
:102EC00083E491E091838083158616861786108AA5
:102ED0000895789484B5826084BD84B5816084BD92
:102EE00085B5826085BD85B5816085BD80916E00A8
:102EF000816080936E0010928100809181008260D9
:102F00008093810080918100816080938100809115
:102F100080008160809380008091B1008460809304
:102F2000B1008091B00081608093B00080917A0000
:102F3000846080937A0080917A00826080937A0026
:102F400080917A00816080937A0080917A00806815
:102F500080937A001092C100E091C103F091C20306
:102F600082E08083E091BD03F091BE031082E09186
:102F7000BF03F091C0038FEC80831092C903E091EE
:102F8000C503F091C60386E08083E091C303F0910E
:102F9000C403808180618083E091C303F091C40306
:102FA000808188608083E091C303F091C4038081B5
:102FB00080688083E091C303F091C40380818F7D9A
:102FC000808380916F04909170048038954279F0ED
:102FD00080E895E29093700480936F048091A3033E
:102FE0009091A4038F55944011F40E94BD030E9458
:102FF000BD0310926F001092800081E880938100E1
:1030000083E896E09093BD028093BC028BE39CE33F
:103010009093BB028093BA0262E088E00E94810331
:1030200061E089E00E94F60261E089E00E9481038C
:103030001092B9021092B8021092B7021092B60222
:103040001092B5021092B40280E286BB80936F00AA
:10305000109209031092080310920B0310920A03B6
:103060000E9442038EE692E09093330380933203F2
:103070008FE692E0909337038093360310925304C7
:1030800080915904823018F098E090935304809313
:10309000560462E370E080E090E00E940F056091CA
:1030A0005A048EE494E00E94560868EE73E080E0D3
:1030B00090E00E940F0560E38EE494E00E947E0998
:1030C000CBE4D6E4CE010197F1F760E38EE494E01F
:1030D0000E947E092197F1F760E38EE494E00E945C
:1030E0007E0983E592E00197F1F760E28EE494E0D7
:1030F0000E947E0960915304606240E08EE494E097
:103100000E94970984E08093540440E06CE08EE4D0
:1031100094E00E9497090E94E20982E0809355049E
:1031200040E066E08EE494E00E94970940E062E0AF
:103130008EE494E00E9497098BE39FE10197F1F7F9
:1031400088E080935A0460E08EE494E00E94560880
:103150000E94E20960E08FE00E94AE0961EA71E03E
:103160008EE494E00E94780B62E080E00E94AE0959
:1031700065EA71E08EE494E00E94780B62E08AE0F8
:103180000E94AE096AEA71E08EE494E00E94780B36
:1031900063E080E00E94AE096FEA71E08EE494E0A3
:1031A0000E94780B63E08AE00E94AE0964EB71E054
:1031B0008EE494E00E94780B83E0809300010E94EB
:1031C0003701FF24F39480E0882E80E0982E92E06F
:1031D000E92E01E083E794E00E94EF07892B09F4D0
:1031E000B2C283E794E00E941208182F8091200554
:1031F00090912105A0912205B09123050196A11D72
:10320000B11D8093200590932105A0932205B093D2
:103210002305143209F476C2E0911A0515320CF038
:10322000BBC01A3019F01D3009F079C2EF3008F038
:1032300030C1F0E0E75FFA4F1082B0900805BB2084
:1032400009F429C120910905822F022E000C990B47
:103250003FEB320F363008F0ABC0C7978295807FC6
:1032600090910A05292F092E000C330B4FEB490FC3
:10327000463008F0A5C027533109820F9091070509
:103280008913F4C080912C0590912D05A0912E05F5
:10329000B0912F050196A11DB11D80932C0590932F
:1032A0002D05A0932E05B0932F0580911B05882333
:1032B00099F08091240590912505A0912605B09163
:1032C00027050196A11DB11D809324059093250526
:1032D000A0932605B0932705C0911805CC2309F4C7
:1032E00078C0C130A1F585EA94E00E943F0883EBE5
:1032F00094E00E943F0880911B05882341F187E0FC
:10330000E3E9F4E0A5E8B4E001900D928A95E1F7D5
:1033100087E0EAE9F4E0ACE8B4E001900D928A9528
:10332000E1F70E9441056093A1047093A204809389
:10333000A3049093A404C0938404C093830481ECF9
:1033400094E00E9428088FEC94E00E942808C09125
:103350001E05D0911F05209709F41FC2E0911E059C
:10336000F0911F0566A177A18EA19FA10E9439242B
:10337000892B09F012C2BE01CE0140960E94422460
:103380000E94410568A379A38AA39BA3FDA2FCA286
:103390000AA4DBA5C02DDFCF1A3209F447CF1C32B7
:1033A00009F0BDC1809107058127809307053ECFB5
:1033B0002156263018F48755910950CFC0974ECF2B
:1033C0009156963018F42755310957CF20533109BB
:1033D00054CF83EB94E00E943F0880911B05882323
:1033E00021F187E0E3E9F4E0A5E8B4E001900D9273
:1033F0008A95E1F787E0EAE9F4E0ACE8B4E001900F
:103400000D928A95E1F70E9441056093A1047093A3
:10341000A2048093A3049093A404009384040093D3
:1034200083048DED94E00E9428088091F50490912A
:10343000F604A091F704B091F8048093F1049093FE
:10344000F204A093F304B093F4040E944105609346
:10345000ED047093EE048093EF049093F0040093D6
:10346000EC040093EB0489EF94E06FCF8091280582
:1034700090912905A0912A05B0912B050196A11DD7
:10348000B11D8093280590932905A0932A05B09338
:103490002B05B12C82C190911905911144C069EBA3
:1034A00071E089E095E00E943924892B41F06FEBAF
:1034B00071E089E095E00E943924892BF1F40093B2
:1034C000180580911C0590911D0590931F05809310
:1034D0001E05C0901E05D0901F05C114D104C9F26D
:1034E00069E075E0F60186A197A10E94392497FF53
:1034F0004DC1F60182A593A5E8CF65EC71E089E0A6
:1035000095E00E943924892B41F06BEC71E089E051
:1035100095E00E943924892B19F410921805D1CF17
:10352000E0921805CECFE0911805E23009F448C0CA
:1035300080910905882309F443C020E2E29FF0014D
:103540001124E92B3197E932F10508F039C0E5552E
:10355000F54E0C948020D41A151B1C1B231B261B14
:10356000541B5B1B681B751BE01AE01AE01AE01A7B
:10357000E01AE01AE01AE01AE01AE01AE01AE01A7B
:10358000E01AE01AE01AE01AE01AE01AE01AE01A6B
:10359000E01AE01AE01AD41A0F1B151B1C1B231B80
:1035A000261B2D1B3A1B471B89E095E00E94390C16
:1035B0006093B9047093BA048093BB049093BC04E5
:1035C000C0901E05D0901F05B0901905C114D104FC
:1035D00009F45FCFE0911E05F0911F0566A177A168
:1035E000F60186A197A10E943924892B09F051CFB9
:1035F000F60120A531A58B2D90E0821793070CF4DE
:1036000048CF2817390739F440E150E069E075E008
:10361000C6010E944924F601C2A4D3A4D5CF91E0EB
:10362000813409F445C090E043C063E974E089E067
:1036300095E00E94B20BC4CF91E0833509F090E091
:1036400090939904BDCF6AE974E0F1CF91E087359A
:1036500009F090E09093A004B3CF89E095E00E9438
:10366000390C6093CB047093CC048093CD04909379
:10367000CE04A6CF89E095E00E94390C6093D9046E
:103680007093DA048093DB049093DC0499CF89E093
:1036900095E00E941D1C6093AB047093AC04809372
:1036A000AD049093AE048CCF91E081330CF4BBCF8A
:1036B00090931B0585CF89E095E00E941D1C6093C7
:1036C000F5047093F6048093F7049093F80478CF90
:1036D00089E095E00E94390C60930305709304051E
:1036E00080930505909306056BCF89E095E00E94D5
:1036F000390C6093E7047093E8048093E904909395
:10370000EA045ECF10921A0510921905109207056F
:10371000E09218051092080510921B055BCDEE3063
:1037200040F481E08E0F80931A05F0E0E75FFA4FD6
:1037300010838091080581114DCD809107051827D0
:103740001093070547CD0E944105693873418105F3
:10375000910580F08091200590912105A09122058E
:10376000B09123050A97A105B10520F480E00E94DD
:10377000CE0EFCCF8114910409F42CCD0E94E505F6
:10378000882309F427CD0E94000024CD892B09F459
:1037900080CE10921F0510921E05809119058F5F33
:1037A0008093190510921A0581E01A3209F080E021
:1037B00080930805BB2009F40DCD81E00E94CE0E58
:1037C00009CD8FE491E09093740480937304809109
:1037D0006F008B7F80936F0080916F008F7D80934F
:1037E0006F008091B7028093B8028091B602811178
:1037F000FCCF80916F008D7F80936F000895EF92D2
:103800000F931F93CF93DF93E80134E047FD34E13A
:10381000042E000C550B57FF03C0519541955109DB
:10382000E32E022F242FAE010E947E1CCE01DF91D9
:10383000CF911F910F91EF9008951F93FC0199274D
:103840008827BC01E89411911032E9F3193010F087
:103850001E30C8F31B3251F01D3249F4689406C083
:103860000E944F1C610F711D811D911D11911053FC
:103870001A30B0F33EF490958095709561957F4F26
:103880008F4F9F4F1F910895BB274A3031F49923E2
:1038900022F4BDE2909581959F4F0C94651C592FA1
:1038A000482F372F262F660F771F881F991F660F07
:1038B000771F881F991F620F731F841F951F660F44
:1038C000771F881F991F0895BB27FB015527AA273B
:1038D000880F991FAA1FA41710F0A41B839550519D
:1038E000B9F7A05DAA3308F0A95DA193009779F715
:1038F000B111B1931192CB010C94B51EA9E0B0E0C7
:10390000E4E8FCE10C94FA1F6A01F22EB02E102FAD
:10391000FBE3AF2EA01608F41BE31F5F012F27E087
:10392000AE014F5F5F4F0E94DD1DBC018981982F62
:103930009970913009F43FC09BE2E1FC04C09E2DD8
:103940009170E0FC3AC05E2D5071E82FE87083FF63
:1039500046C084E0911101C083E0EF2DE81B8F1574
:1039600008F0E0E0D6018E2F20E2552351F1992393
:1039700029F0D6019C93C60101966C0196012D5F3A
:103980003F4FE2FE24C08EE4D6018C9391E4119661
:103990009C93119712968C93D9018E2F90E28111EE
:1039A0001BC0E20FF32FF11D10828EEF9FEF2996BF
:1039B000ECE00C9416209DE2C6CF90E2C4CF2D938C
:1039C00081508111FCCFCE0ED11CE0E0D0CF8EE62D
:1039D000D6018C9391E6DBCF9D938150E0CF482FA9
:1039E000447082FF3DC084E0911101C083E08F15D7
:1039F00010F4EF2DE81BD6018E2F20E2552309F19C
:103A0000992329F0D6019C93C60101966C01960179
:103A10002D5F3F4FE2FE1BC089E4D6018C938EE4FC
:103A200011968C93119786E412968C93D9018E2F60
:103A300090E2882309F4B5CF9D938150FACF2D935E
:103A400081508111FCCFCE0ED11CE0E0D9CF89E6A8
:103A5000D6018C938EE611968C93119786E6E4CF6F
:103A60009B0177FF02C030E020E0A1E0B0E09111BF
:103A700002C0B0E0A0E0F9013196AE0FBF1F8B2C61
:103A8000912CBB2009F461C05401EFEFAE1ABE0ABD
:103A9000AA0DBB1DFA161B0619F014F04F2D4A1B78
:103AA000511188C0E3FC59C07601A42FB0E2A111E6
:103AB0004FC0C40ED11C992309F45BC040E0D6016D
:103AC0001196F60190836D01552309F448C0012F2A
:103AD000060F9A81582F507184FF03C0913309F467
:103AE000015010160CF047C0093008F008E0EEE273
:103AF000FE2E5B01A01AB108850191948194910872
:103B00002F3F320729F4D601FC92F60131966F015E
:103B10006217730794F1021713077CF5DB01A21BF0
:103B2000B30BAA24A394B12CAC0EBD1EAA0DBB1DD1
:103B300011968C9121503109D6011196281539051D
:103B4000F4F0F60180836D01DBCFB12CA12CA0CF66
:103B5000F701B1937F01A150AACF9111B0CFD60147
:103B6000942F50E302C05D9391509111FCCFC40E8D
:103B7000D11C40E0ACCF01E0BACF80E3DBCF6217CD
:103B8000730731F4963388F4953311F4552369F0B3
:103B9000F6018083FD01842F90E2811108C0A40FFB
:103BA000B11D1C9290E080E002CF81E3F1CF9193B0
:103BB0008150F3CF911183CF8ACF283008F027E0CE
:103BC0003327DA01990F311D87FD91600096610559
:103BD000710539F432602E5F3D9330E32A95E1F7A9
:103BE00008959F3F30F080387105610509F03C5F12
:103BF0003C5F3D93913008F08068911DDF93CF9337
:103C00001F930F93FF92EF92192F987F9695E92FAC
:103C100096959695E90FFF27E45EFE4F9927332787
:103C2000EE24FF24A701E70105900894079428F4E7
:103C3000360FE71EF81E491F511D660F771F881F9C
:103C4000991F0694A1F70590079428F4E70EF81E33
:103C5000491F561FC11D770F881F991F661F0694A5
:103C6000A1F70590079428F4F80E491F561FC71FA7
:103C7000D11D880F991F661F771F0694A1F7059025
:103C8000079420F4490F561FC71FD81F990F661FAE
:103C9000771F881F0694A9F784911095177041F03B
:103CA000D695C79557954795F794E7941A95C1F718
:103CB000E2ECF0E06894159015913591659195913D
:103CC00005907FE27395E118F10A430B560BC90B7F
:103CD000D009C0F7E10CF11E431F561FC91FD01DAC
:103CE0007EF4703311F48A95E6CFE894015030F0F9
:103CF000080F0AF40027021708F4202F2395022F3B
:103D00007A3328F079E37D932A95E9F710C07D9303
:103D10002A9589F606949795679537951795179480
:103D2000E118F10A430B560BC90BD00998F0239503
:103D30007E9173957A3308F070E37C932013B8F783
:103D40007E9170617D9330F0839571E37D9370E394
:103D50002A95E1F71124EF90FF900F911F91CF91D9
:103D6000DF91992787FD90950895DC01FC01672F6D
:103D700071917723E1F7329704C07C916D93708342
:103D80006291AE17BF07C8F308950E94071F08F499
:103D900081E00895E89409C097FB3EF490958095E2
:103DA000709561957F4F8F4F9F4F9923A9F0F92F01
:103DB00096E9BB279395F695879577956795B7957F
:103DC000F111F8CFFAF4BB0F11F460FF1BC06F5F65
:103DD0007F4F8F4F9F4F16C0882311F096E911C077
:103DE000772321F09EE8872F762F05C0662371F098
:103DF00096E8862F70E060E02AF09A95660F771FAC
:103E0000881FDAF7880F9695879597F90895990F87
:103E10000008550FAA0BE0E8FEEF16161706E80794
:103E2000F907C0F012161306E407F50798F0621BB5
:103E3000730B840B950B39F40A2661F0232B242B8A
:103E4000252B21F408950A2609F4A140A6958FEFA9
:103E5000811D811D08950E943E1F0C94AF1F0E947A
:103E6000A11F38F00E94A81F20F0952311F00C9498
:103E7000981F0C949E1F11240C94E31F0E94C01FD6
:103E800070F3959FC1F3950F50E0551F629FF001AD
:103E9000729FBB27F00DB11D639FAA27F00DB11DC6
:103EA000AA1F649F6627B00DA11D661F829F22274F
:103EB000B00DA11D621F739FB00DA11D621F839FD6
:103EC000A00D611D221F749F3327A00D611D231FAC
:103ED000849F600D211D822F762F6A2F11249F57FA
:103EE00050409AF0F1F088234AF0EE0FFF1FBB1FFD
:103EF000661F771F881F91505040A9F79E3F5105BC
:103F000080F00C94981F0C94E31F5F3FE4F3983EFD
:103F1000D4F3869577956795B795F795E7959F5F65
:103F2000C1F7FE2B880F911D9695879597F90895F7
:103F300097F99F6780E870E060E008959FEF80EC5C
:103F4000089500240A9416161706180609060895FF
:103F500000240A9412161306140605060895092E65
:103F60000394000C11F4882352F0BB0F40F4BF2BD4
:103F700011F460FF04C06F5F7F4F8F4F9F4F089514
:103F800057FD9058440F551F59F05F3F71F047950A
:103F9000880F97FB991F61F09F3F79F087950895EF
:103FA000121613061406551FF2CF4695F1DF08C00E
:103FB000161617061806991FF1CF8695710561052B
:103FC00008940895E894BB2766277727CB0197F9D3
:103FD00008950E942B20A59F900DB49F900DA49F43
:103FE000800D911D112408952F923F924F925F9260
:103FF0006F927F928F929F92AF92BF92CF92DF92F9
:10400000EF92FF920F931F93CF93DF93CDB7DEB75D
:10401000CA1BDB0B0FB6F894DEBF0FBECDBF0994F1
:104020002A88398848885F846E847D848C849B8448
:10403000AA84B984C884DF80EE80FD800C811B8156
:10404000AA81B981CE0FD11D0FB6F894DEBF0FBE85
:10405000CDBFED010895A29FB001B39FC001A39F02
:10406000700D811D1124911DB29F700D811D1124B1
:10407000911D0895DB018F939F930E94E91FBF91CB
:10408000AF91A29F800D911DA39F900DB29F900DA7
:104090001124089597FB072E16F4009407D077FD9E
:1040A00009D00E948E2007FC05D03EF490958195A2
:1040B0009F4F0895709561957F4F0895A1E21A2E44
:1040C000AA1BBB1BFD010DC0AA1FBB1FEE1FFF1FBC
:1040D000A217B307E407F50720F0A21BB30BE40B0C
:1040E000F50B661F771F881F991F1A9469F7609553
:1040F0007095809590959B01AC01BD01CF0108950D
:10410000EE0FFF1F0590F491E02D0994B7FF0C947A
:10411000E91F0E94E91F821B930B0895AA1BBB1B7A
:1041200051E107C0AA1FBB1FA617B70710F0A61BB7
:10413000B70B881F991F5A95A9F780959095BC01D8
:10414000CD0108955058BB27AA270E94BA200C948D
:10415000AF1F0E94A11F38F00E94A81F20F039F461
:104160009F3F19F426F40C949E1F0EF4E095E7FB94
:104170000C94981FE92F0E94C01F58F3BA176207CA
:1041800073078407950720F079F4A6F50C94E21FD5
:104190000EF4E0950B2EBA2FA02D0B01B901900162
:1041A0000C01CA01A0011124FF27591B99F0593FA6
:1041B00050F4503E68F11A16F040A22F232F342FEE
:1041C0004427585FF3CF469537952795A795F0403C
:1041D0005395C9F77EF41F16BA0B620B730B840B51
:1041E000BAF09150A1F0FF0FBB1F661F771F881F09
:1041F000C2F70EC0BA0F621F731F841F48F4879561
:1042000077956795B795F7959E3F08F0B0CF939552
:10421000880F08F09927EE0F9795879508950E94CB
:1042200023210C94AF1F0E94A81F58F00E94A11FC9
:1042300040F029F45F3F29F00C94981F51110C9421
:10424000E31F0C949E1F0E94C01F68F39923B1F3D3
:10425000552391F3951B550BBB27AA2762177307AC
:10426000840738F09F5F5F4F220F331F441FAA1F40
:10427000A9F335D00E2E3AF0E0E832D091505040FC
:10428000E695001CCAF72BD0FE2F29D0660F771FAA
:10429000881FBB1F261737074807AB07B0E809F090
:1042A000BB0B802DBF01FF2793585F4F3AF09E3F15
:1042B000510578F00C94981F0C94E31F5F3FE4F3D2
:1042C000983ED4F3869577956795B795F7959F5F58
:1042D000C9F7880F911D9695879597F90895E1E0A4
:1042E000660F771F881FBB1F621773078407BA0703
:1042F00020F0621B730B840BBA0BEE1F88F7E0955E
:1043000008950E9488216894B1110C94E31F0895C8
:104310000E94C81F88F09F5798F0B92F9927B7516E
:10432000B0F0E1F0660F771F881F991F1AF0BA9559
:10433000C9F714C0B13091F00E94E21FB1E00895B6
:104340000C94E21F672F782F8827B85F39F0B93FA8
:10435000CCF3869577956795B395D9F73EF490950C
:104360008095709561957F4F8F4F9F4F08950E9464
:10437000071F08F48FEF08950E94CC2129ED3BE53B
:104380004EED5EE30C942B1F16F00C9419220C9446
:104390009E1F68940C94981F0E94C81FA8F399232D
:1043A000C1F3AEF3DF93CF931F930F93FF92C92F07
:1043B000DD2788232AF02197660F771F881FDAF7F9
:1043C00020E030E040E85FEB9FE3883920F0803E5A
:1043D00038F021968F770E94A320E8E6F0E004C031
:1043E0000E94A320E5E9F0E00E9427228B01BE0194
:1043F000EC01FB2E6F5771097595771F880B990B90
:104400000E94CC1E28E132E741E35FE30E943E1F99
:10441000AF2D9801AE01FF900F911F91CF91DF91C9
:104420000E94BA200C94AF1F0E94071F880B990BA3
:1044300008959F3F31F0915020F4879577956795C7
:10444000B795880F911D9695879597F90895DF93F5
:10445000CF931F930F93FF92EF92DF927B018C011A
:10446000689406C0DA2EEF010E943E1FFE01E89418
:10447000A5912591359145915591A6F3EF010E94A3
:10448000BA20FE019701A801DA9469F7DF90EF9056
:10449000FF900F911F91CF91DF9108950F931F937C
:1044A000CF93DF938230910510F482E090E0E091A9
:1044B0003205F091330530E020E0B0E0A0E0309725
:1044C00099F42115310509F44AC0281B390B243011
:1044D0003105D8F58A819B816115710589F1FB0150
:1044E00093838283FE0111C0408151810281138137
:1044F00048175907E0F04817590799F4109761F0E9
:1045000012960C93129713961C933296CF01DF915B
:10451000CF911F910F9108950093320510933305A9
:10452000F4CF2115310551F04217530738F0A90196
:10453000DB019A01BD01DF01F801C1CFEF01F9CF25
:104540009093330580933205CDCFFE01E20FF31F28
:10455000819391932250310939832883D7CF2091B9
:10456000300530913105232B41F420910301309126
:1045700004013093310520933005209101013091E1
:1045800002012115310541F42DB73EB740910501D7
:1045900050910601241B350BE0913005F091310557
:1045A000E217F307A0F42E1B3F0B2817390778F00A
:1045B000AC014E5F5F4F2417350748F04E0F5F1F69
:1045C0005093310540933005819391939FCFF0E054
:1045D000E0E09CCFCF93DF930097E9F0FC013297A6
:1045E00013821282A0913205B0913305ED0130E0C3
:1045F00020E01097A1F420813181820F931F209138
:104600003005309131052817390709F061C0F09362
:104610003105E0933005DF91CF910895EA01CE177F
:10462000DF07E8F54A815B819E0141155105B1F72D
:10463000E901FB83EA8349915991C40FD51FEC1717
:10464000FD0761F4808191810296840F951FE90135
:1046500099838883828193819B838A83F0E0E0E061
:1046600012968D919C9113970097B9F52D913C91DD
:104670001197CD010296820F931F20913005309142
:1046800031052817390739F6309751F5109233055F
:1046900010923205B0933105A0933005BCCFD3837F
:1046A000C28340815181840F951FC817D90761F4D7
:1046B0004E5F5F4F88819981480F591F5183408316
:1046C0008A819B81938382832115310509F0B0CFC4
:1046D000F0933305E09332059ECFFD01DC01C0CF9E
:1046E00013821282D7CFB0E0A0E0E9E7F3E20C94A6
:1046F000F61F8C01009751F4CB010E944E228C01D1
:10470000C801CDB7DEB7E0E10C941220FC01E60F42
:10471000F71F9C0122503109E217F30708F49DC0EE
:10472000D901CD91DC911197C617D70798F0C53004
:10473000D10530F3CE0104978617970708F3C61BFF
:10474000D70B2297C193D1936D937C93CF010E9495
:10475000EA22D6CF5B01AC1ABD0A4C018C0E9D1E1D
:10476000A0913205B0913305512C412CF12CE12C54
:10477000109731F580913005909131058815990594
:1047800009F05CC04616570608F058C08091010138
:1047900090910201009741F48DB79EB740910501B9
:1047A00050910601841B950BE817F90708F055C0D6
:1047B000F0933105E0933005F90171836083A0CF58
:1047C0008D919C91119712966C90129713967C90F4
:1047D0001397A815B90559F56C0142E0C40ED11C18
:1047E000CA14DB0420F1AC014A195B09DA01129604
:1047F000159780F06282738251834083D9016D9353
:104800007C93E114F10471F0D7011396FC93EE93BD
:10481000129776CF22968C0F9D1FF901918380838A
:10482000F301EFCFF0933305E093320569CF4816DB
:10483000590608F42C017D01D3019ACFCB010E94C7
:104840004E227C01009749F0AE01B8010E9430244D
:10485000C8010E94EA22870153CF10E000E050CF48
:10486000FB01DC0102C001900D9241505040D8F78D
:104870000895FB01DC018D91019080190110D9F39D
:10488000990B0895FB01DC0101900D920020E1F7E6
:104890000895FB01DC014150504048F001900D9219
:1048A0000020C9F701C01D9241505040E0F7089523
:1048B00011E0CCE0D1E004C0FE010E9480202196EE
:0A48C000CD30D107C9F7F894FFCFFF
:1048CA000100003405800000004000140054001F5D
:1048DA001C1F1E1F1E1F1F1E1F1E1F00000000C7B9
:1048EA00029A027B097002930280027102000000A0
:1048FA00001B067205A8056806D905B705CB050091
:10490A00000000F50972057B094D01000000004214
:10491A000972057B093D09EF071208FF070000002D
:10492A0000500772057B094D01D907C3077B096E41
:10493A00616E00696E66006F766600200030004C7A
:10494A004F434B494E47004E4F2047505321005684
:10495A000041542B53454E443D302C003B000D0A78
:10496A00004D5048004241543A004155583A004DD2
:10497A004F543A004152523A004750524D43004771
:10498A004E524D4300475047474100474E47474123
:02499A0000001B
:00000001FF
