:100000000C9462000C948A000C948A000C940206F2
:100010000C94DD050C94B8050C948A000C948A00AD
:100020000C948A000C948A000C948A000C948A0028
:100030000C948A000C948A000C948A000C948A0018
:100040000C9416050C948A000C9486050C9460059B
:100050000C948A000C948A000C948A000C948A00F8
:100060000C948A000C948A000000000024002700F1
:100070002A0000000008000201000003040700003D
:1000800000000000000000000000250028002B00F8
:1000900000000000230026002900040404040404D6
:1000A0000404020202020202030303030303010227
:1000B00004081020408001020408102001020408F6
:1000C0001020270611241FBECFEFD8E0DEBFCDBF22
:1000D00022E0AEE2B1E001C01D92AB33B207E1F71E
:1000E00011E0A0E0B1E0E8EAF3E102C005900D9272
:1000F000AE32B107D9F710E0C2E6D0E004C02197D4
:10010000FE010E94DA07C136D107C9F70E946606D0
:100110000C94D2090C940000089590E0FC01EE5874
:10012000FF4F2491FC01E255FF4F3491FC01E6564C
:10013000FF4FE491EE23C9F0222339F0233001F17F
:10014000A8F4213019F1223029F1F0E0EE0FFF1F61
:10015000EA57FF4FA591B4918FB7F894EC916111D4
:1001600026C030953E233C938FBF08952730A9F0D9
:100170002830C9F0243049F7809180008F7D03C07A
:10018000809180008F7780938000DFCF84B58F7758
:1001900084BDDBCF84B58F7DFBCF8091B0008F779E
:1001A0008093B000D2CF8091B0008F7DF9CF3E2BED
:1001B000DACFCF93DF9390E0FC01E255FF4F24911B
:1001C00086569F4FFC0184918823D1F090E0880FE0
:1001D000991FFC01E859FF4FA591B491FC01EA5722
:1001E000FF4FC591D49161110EC09FB7F8948C91C7
:1001F000E22FE0958E238C932881E223E8839FBF32
:10020000DF91CF9108958FB7F894EC91E22BEC93A6
:100210008FBFF6CFCF93DF93A0918001B091810182
:10022000109709F443C01C968C911C97EDE6F0E002
:10023000883050F0EBE6F0E08E3030F0ECE6F0E0A5
:10024000863110F0F0E0E0E05FB7F89410928101A1
:1002500010928001309749F11C968C911C97C8E64A
:10026000D0E0863110F0D0E0C0E02881883008F47A
:100270006AC031E08E3008F430E081E090E001C0E7
:10028000880F3A95EAF780958223888360811C96CF
:100290004C91483008F059C081E090E001C0880FCF
:1002A0004A95EAF78095862380835FBF60E080915E
:1002B0002F020E94D90080912F0290E0FC01E255AC
:1002C000FF4FE491E0937F01FC01E656FF4FE4917C
:1002D000F0E0EE0FFF1FE057FF4F85919491909350
:1002E0003202809331028091300290E0FC01E255AD
:1002F000FF4F249120937E01FC01E656FF4FE491CD
:10030000F0E0EE0FFF1FEA57FF4FA591B491B093B5
:100310007D01A0937C01109719F0EC91E22BEC93F6
:1003200061E0809130020E94D90080912F028830D4
:10033000E0F08E3008F45EC0ECE6F0E08631B8F014
:10034000DF91CF9108958BEF9FCF242F30E04E3077
:1003500048F42850310981E090E001C0880F2A95C7
:10036000EAF7A0CF2E503109F6CFEDE6F0E08FEF9F
:1003700080937B0110927A0110927901809133026F
:100380009091340281152BE4920709F457C0A8F527
:100390008038954209F440C05FB7F894408190914D
:1003A0002F02983008F052C081E001C0880F9A9562
:1003B000EAF7842B808380912F02E8E6F0E0863113
:1003C00010F0F0E0E0E09081883008F44EC021E0C9
:1003D0008E3008F420E081E001C0880F2A95EAF70A
:1003E000892B808383E292E0909381018093800146
:1003F0005FBFA6CFEBE6F0E0BACF82312AE79207E3
:10040000A9F08115964941F686E0809378018DE93F
:100410008093770184E007C08AE18093780187E2C6
:10042000809377018AE080937601B6CF88E080934D
:10043000780180E88093770185E0F5CF8DE08093A7
:1004400078018EE48093770186E0EDCF292F30E0AC
:100450009E3040F42850310981E001C0880F2A9570
:10046000EAF7A7CF2E503109F7CF84E0B9CFAF928A
:10047000BF92CF92DF92EF92FF920F931F93CF9391
:10048000DF936C017B018B01040F151FEB015E01F3
:10049000AE18BF08C017D10759F06991D601ED9188
:1004A000FC910190F081E02DC6010995892B79F727
:1004B000C501DF91CF911F910F91FF90EF90DF90D9
:1004C000CF90BF90AF900895FC01538D448D252FA0
:1004D00030E0842F90E0821B930B541710F0CF96DE
:1004E000089501970895FC01918D828D981761F010
:1004F000A28DAE0FBF2FB11D5D968C91928D9F5F27
:100500009F73928F90E008958FEF9FEF0895FC0105
:10051000918D828D981731F0828DE80FF11D858DB8
:1005200090E008958FEF9FEF0895FC01918D228D4B
:10053000892F90E0805C9F4F821B91098F739927D0
:10054000089586E891E00E94950221E0892B09F444
:1005500020E0822F089580E090E0892B29F00E940E
:10056000A10281110C9400000895FC01A48DA80F34
:10057000B92FB11DA35ABF4F2C91848D90E00196E5
:100580008F739927848FA689B7892C93A089B18905
:100590008C91837080648C93938D848D981306C0A6
:1005A0000288F389E02D80818F7D80830895EF920A
:1005B000FF920F931F93CF93DF93EC0181E0888F1D
:1005C0009B8D8C8D98131AC0E889F989808185FFED
:1005D00015C09FB7F894EE89FF896083E889F9898F
:1005E00080818370806480839FBF81E090E0DF9191
:1005F000CF911F910F91FF90EF900895F62E0B8DE4
:1006000010E00F5F1F4F0F731127E02E8C8D8E119E
:100610000CC00FB607FCFACFE889F989808185FF05
:10062000F5CFCE010E94B502F1CFEB8DEC0FFD2F7F
:10063000F11DE35AFF4FF0829FB7F8940B8FEA89C0
:10064000FB8980818062CFCFCF93DF93EC01888DCF
:100650008823B9F0AA89BB89E889F9898C9185FD3D
:1006600003C0808186FD0DC00FB607FCF7CF8C91CB
:1006700085FFF2CF808185FFEDCFCE010E94B502CC
:10068000E9CFDF91CF910895E0918001F091810150
:100690003097C1F00288F389E02D309709F0099472
:1006A0002091790130E0A9014F5F5F4F4F735527CB
:1006B00090917A01941731F02F5C3E4FF9018083BD
:1006C000409379010895CF93DF93EC0130917B0142
:1006D0003F3F91F1AE85BF858C9190917F01892339
:1006E00059F126B599E0931B80917601280F8091EE
:1006F0003001281B80917701289F90011124232F1E
:1007000033272695269592171306B0F480912F0172
:1007100020912E01915018F0822B220FFBCF809355
:100720002F0120932E0190937B010E94440381E0CE
:100730002A893B89232B09F080E0DF91CF9108952E
:10074000EF92FF920F931F93CF93DF93E6B4F09055
:100750007F01F82290917B019F3F91F4F11009C035
:1007600010927B0181E080932E0110922F01E09284
:100770003001DF91CF911F910F91FF90EF9008957D
:10078000C0917601CE0D80913001C81B8091770118
:10079000C89FE0011124CD2FDD27C695C69529E01D
:1007A000291B022F10E00C171D0708F02C2F920FA9
:1007B00090937B0140912E0180912F01F11011C087
:1007C0002150342F330F2F3F19F0842B432FF8CFB4
:1007D00080932F0130932E01983048F20E944403F9
:1007E00013C02150330B01C0440F2A95EAF7409300
:1007F0002E01842B80932F01983008F4B8CF0E94EB
:10080000440381E0F81621F00C171D0708F4A8CF67
:100810008FEF80937B01ABCFCF92DF92EF92FF926D
:100820000F931F93CF93DF938C01D62E80917C0181
:1008300090917D01892B09F454C0D8011C969C919C
:10084000D4E0983048F081E09E3008F480E0D1E0B8
:1008500001C0DD0F8A95EAF7CFB6F894F6B490E0C0
:10086000E12CE394E0917C01F0917D0180917E0187
:10087000BAE0EB1651F19923D9F09081892B80834E
:10088000C0917801C63011F4E0FCC7E086B58F193D
:100890008C17B0F48BB38D2379F08BB38D2B8BBB7E
:1008A000D8011E96ED91FC9180810E94A003EECFAD
:1008B000908180958923E3CFC8010E946303E6CF2E
:1008C000FC0E9D2D9170D694CCCF9081892B808386
:1008D000CFBE86B58F198C1778F4C8010E946303C8
:1008E000F8CF90E080E0DF91CF911F910F91FF90C2
:1008F000EF90DF90CF90089581E090E0F4CF2091C9
:100900007A0180917901821769F030E0F901EF5C9A
:10091000FE4F80812F5F3F4F2F73332720937A0143
:1009200090E008958FEF9FEF08952FB7F89480918E
:10093000820190918301A0918401B09185012FBF24
:1009400080932B0290932C02A0932D02B0932E0241
:1009500083E292E00E947F0497FF26C02FB7F894AD
:100960008091820190918301A0918401B0918501D1
:100970002FBF40912B0250912C0260912D0270915B
:100980002E02841B950BA60BB70B409127025091AA
:1009900028026091290270912A0284179507A60700
:1009A000B707B0F28FEF9FEF08959C018091790116
:1009B00090917A01891B990B805C9F4F60E470E0F5
:1009C0000E94B207811105C0C901F8940E94630317
:1009D000789490E0089590E080E008950F931F933D
:1009E000CF93DF93EC0188819981009759F02A8198
:1009F0003B812617370730F081E0DF91CF911F91BF
:100A00000F9108958B016F5F7F4F0E94050900973A
:100A100059F0998388831B830A832C813D81232B82
:100A200059F7FC011082E8CF80E0E7CF1F920F92C8
:100A30000FB60F9211242F933F938F939F93AF93F1
:100A4000BF938091820190918301A0918401B09124
:100A500085013091750123E0230F2D3758F501965C
:100A6000A11DB11D20937501809382019093830194
:100A7000A0938401B09385018091710190917201DE
:100A8000A0917301B09174010196A11DB11D8093D5
:100A9000710190937201A0937301B0937401BF919F
:100AA000AF919F918F913F912F910F900FBE0F901B
:100AB0001F90189526E8230F0296A11DB11DD2CFD5
:100AC0001F920F920FB60F9211242F933F934F93C3
:100AD0005F936F937F938F939F93AF93BF93EF93A6
:100AE000FF9386E891E00E94B502FF91EF91BF91DC
:100AF000AF919F918F917F916F915F914F913F91B6
:100B00002F910F900FBE0F901F9018951F920F926C
:100B10000FB60F9211242F938F939F93EF93FF9310
:100B2000E0919601F09197018081E0919C01F09114
:100B30009D0182FD1BC0908180919F018F5F8F730B
:100B40002091A001821741F0E0919F01F0E0EA5767
:100B5000FE4F958F80939F01FF91EF919F918F9111
:100B60002F910F900FBE0F901F9018958081F4CF9A
:100B70001F920F920FB60F9211242F933F934F9312
:100B80005F936F937F938F939F93AF93BF93EF93F5
:100B9000FF9389B10E94A003FF91EF91BF91AF91A4
:100BA0009F918F917F916F915F914F913F912F9185
:100BB0000F900FBE0F901F9018951F920F920FB6B7
:100BC0000F9211242F933F934F935F936F937F93D3
:100BD0008F939F93AF93BF93EF93FF9386B10E9440
:100BE000A003FF91EF91BF91AF919F918F917F9162
:100BF0006F915F914F913F912F910F900FBE0F908A
:100C00001F9018951F920F920FB60F9211242F93D9
:100C10003F934F935F936F937F938F939F93AF9384
:100C2000BF93EF93FF9383B10E94A003FF91EF91D5
:100C3000BF91AF919F918F917F916F915F914F91F4
:100C40003F912F910F900FBE0F901F901895E6E8DF
:100C5000F1E01382128288EE93E0A0E0B0E084839A
:100C60009583A683B7832AE031E03183208325EC86
:100C700030E03587248724EC30E03787268720EC66
:100C800030E0318B208B21EC30E0338B228B22EC57
:100C900030E0358B248B26EC30E0378B268B118EA1
:100CA000128E138E148EE3E2F2E01382128284839A
:100CB0009583A683B78388E0848789E08587138A34
:100CC000128A8CE191E0918380830895CF93DF9322
:100CD000CDB7DEB728970FB6F894DEBF0FBECDBFF5
:100CE000789484B5826084BD84B5816084BD85B507
:100CF000826085BD85B5816085BD80916E00816013
:100D000080936E00109281008091810082608093B8
:100D100081008091810081608093810080918000BA
:100D20008160809380008091B10084608093B100E5
:100D30008091B00081608093B00080917A008460DF
:100D400080937A0080917A00826080937A0080910B
:100D50007A00816080937A0080917A008068809325
:100D60007A001092C100E0919601F091970182E023
:100D70008083E0919201F09193011082E0919401BF
:100D8000F09195018FEC808310929E01E0919A0181
:100D9000F0919B0186E08083E0919801F0919901A8
:100DA000808180618083E0919801F0919901808138
:100DB00088608083E0919801F0919901808180683A
:100DC0008083E0919801F091990180818F7D8083EB
:100DD00080913302909134028038954279F080E816
:100DE00095E2909334028093330280918001909138
:100DF00081018352924011F40E940A010E940A016B
:100E000061E08DE00E94D90080E0E82E80E0F82EBD
:100E100083E292E00E94D504892B09F460C061E06E
:100E20008DE00E948D001A8219821C821B821E8214
:100E30001D8270E060E0CE0101960E94EE042981DF
:100E40003A8181112CC02115310519F0C9010E9488
:100E50007C081A8219821E821D821C821B820E94BB
:100E600095044D815E8197FD22C08F8318868A018B
:100E70000F5F1F4FB801CE0101960E94EE04882338
:100E800071F329813A818D819E81BE01695F7F4F17
:100E9000820F931F0E94CB091E830D83E0CF1E8219
:100EA0001D826CE271E0C9010E94CB09D8CF698133
:100EB0007A8186E891E00E94370242E050E06AE2DF
:100EC00071E086E891E00E94370289819A8100975B
:100ED00011F00E947C0860E08DE00E948D00E1141A
:100EE000F10409F495CF0E94A102882309F490CF60
:100EF0000E9400008DCF2F923F924F925F926F928F
:100F00007F928F929F92AF92BF92CF92DF92EF9299
:100F1000FF920F931F93CF93DF93CDB7DEB7CA1B1A
:100F2000DB0B0FB6F894DEBF0FBECDBF09942A8845
:100F3000398848885F846E847D848C849B84AA84ED
:100F4000B984C884DF80EE80FD800C811B81AA817A
:100F5000B981CE0FD11D0FB6F894DEBF0FBECDBF45
:100F6000ED01089597FB072E16F4009407D077FD46
:100F700009D00E94C60707FC05D03EF490958195E4
:100F80009F4F0895709561957F4F0895AA1BBB1BD5
:100F900051E107C0AA1FBB1FA617B70710F0A61B79
:100FA000B70B881F991F5A95A9F780959095BC019A
:100FB000CD010895EE0FFF1F0590F491E02D0994E7
:100FC0000F931F93CF93DF938230910510F482E04B
:100FD00090E0E0913902F0913A0230E020E0B0E098
:100FE000A0E0309799F42115310509F44AC0281B77
:100FF000390B24303105D8F58A819B816115710543
:1010000089F1FB0193838283FE0111C040815181EC
:101010000281138148175907E0F04817590799F4DE
:10102000109761F012960C93129713961C933296B8
:10103000CF01DF91CF911F910F9108950093390255
:1010400010933A02F4CF2115310551F0421753079E
:1010500038F0A901DB019A01BD01DF01F801C1CF20
:10106000EF01F9CF90933A0280933902CDCFFE0180
:10107000E20FF31F81939193225031093983288322
:10108000D7CF2091370230913802232B41F42091A1
:1010900002013091030130933802209337022091EE
:1010A0000001309101012115310541F42DB73EB702
:1010B0004091040150910501241B350BE09137024A
:1010C000F0913802E217F307A0F42E1B3F0B28170C
:1010D000390778F0AC014E5F5F4F2417350748F0B1
:1010E0004E0F5F1F509338024093370281939193C4
:1010F0009FCFF0E0E0E09CCFCF93DF930097E9F043
:10110000FC01329713821282A0913902B0913A0207
:10111000ED0130E020E01097A1F420813181820FB1
:10112000931F20913702309138022817390709F0B0
:1011300061C0F0933802E0933702DF91CF910895B8
:10114000EA01CE17DF07E8F54A815B819E01411570
:101150005105B1F7E901FB83EA8349915991C40F25
:10116000D51FEC17FD0761F4808191810296840FF1
:10117000951FE90199838883828193819B838A8368
:10118000F0E0E0E012968D919C9113970097B9F5ED
:101190002D913C911197CD010296820F931F2091C2
:1011A0003702309138022817390739F6309751F550
:1011B00010923A0210923902B0933802A09337028B
:1011C000BCCFD383C28340815181840F951FC81740
:1011D000D90761F44E5F5F4F88819981480F591F8D
:1011E000518340838A819B819383828321153105BA
:1011F00009F0B0CFF0933A02E09339029ECFFD019F
:10120000DC01C0CF13821282D7CFB0E0A0E0EBE0C8
:10121000F9E00C947D078C01009751F4CB010E94FA
:10122000E0078C01C801CDB7DEB7E0E10C94990767
:10123000FC01E60FF71F9C0122503109E217F3076A
:1012400008F49DC0D901CD91DC911197C617D7073D
:1012500098F0C530D10530F3CE0104978617970773
:1012600008F3C61BD70B2297C193D1936D937C9340
:10127000CF010E947C08D6CF5B01AC1ABD0A4C019D
:101280008C0E9D1EA0913902B0913A02512C412C36
:10129000F12CE12C109731F58091370290913802B2
:1012A0008815990509F05CC04616570608F058C025
:1012B0008091000190910101009741F48DB79EB794
:1012C0004091040150910501841B950BE817F90723
:1012D00008F055C0F0933802E0933702F9017183AA
:1012E0006083A0CF8D919C91119712966C9012976C
:1012F00013967C901397A815B90559F56C0142E037
:10130000C40ED11CCA14DB0420F1AC014A195B09DC
:10131000DA011296159780F06282738251834083BE
:10132000D9016D937C93E114F10471F0D701139608
:10133000FC93EE93129776CF22968C0F9D1FF901A6
:1013400091838083F301EFCFF0933A02E093390267
:1013500069CF4816590608F42C017D01D3019ACFB4
:10136000CB010E94E0077C01009749F0AE01B80173
:101370000E94C209C8010E947C08870153CF10E077
:1013800000E050CFFB01DC0102C001900D92415002
:101390005040D8F70895FB01DC0101900D92002028
:0813A000E1F70895F894FFCF76
:1013A80000003B02800000000000D7023702640200
:1013B8002403950273028702000000000C04370220
:0E13C800EB048C00D5047F04EB040D0A00003A
:00000001FF
